:100000000C9462000C947F000C947F000C947F0091
:100010000C947F000C947F000C947F000C94DD0204
:100020000C947F000C947F000C947F000C947F0054
:100030000C947F000C947F000C947F000C947F0044
:100040000C9493020C947F000C947F000C947F001E
:100050000C947F000C947F000C947F000C947F0024
:100060000C947F000C947F00000000002400270007
:100070002A000000000023002600290000000008DC
:10008000000201000003040700000000000000005F
:10009000010204081020408001020408102001021F
:1000A0000408102000000000250028002B00040494
:1000B0000404040404040202020202020303030310
:1000C0000303020011241FBECFEFD8E0DEBFCDBF77
:1000D00011E0A0E0B1E0EEE6F9E002C005900D927B
:1000E000A230B107D9F721E0A2E0B1E001C01D9232
:1000F000A032B207E1F70E9439030C94B5040C94C6
:100100000000833081F028F4813099F08230A9F02A
:1001100008958730A9F08830C9F08430B1F4809117
:1001200080008F7D03C0809180008F778093800056
:10013000089584B58F7784BD089584B58F7DFBCFF6
:100140008091B0008F778093B00008958091B000C7
:100150008F7DF9CFCF93DF93282F30E0F901E4585A
:10016000FF4F8491F901E057FF4FD491F901E25517
:10017000FF4FC491CC23A1F081110E948100EC2F8C
:10018000F0E0EE0FFF1FEE58FF4FA591B491EC91F8
:10019000ED2381E090E009F480E0DF91CF910895B4
:1001A00080E090E0FACF1F93CF93DF93282F30E0C9
:1001B000F901E458FF4F8491F901E057FF4FD491C2
:1001C000F901E255FF4FC491CC23A9F0162F8111FC
:1001D0000E948100EC2FF0E0EE0FFF1FEC55FF4F67
:1001E000A591B4918FB7F894EC91111108C0D095F6
:1001F000DE23DC938FBFDF91CF911F910895DE2B1B
:10020000F8CFCF93DF9390E0FC01E057FF4F2491AC
:1002100082559F4FFC0184918823D1F090E0880F94
:10022000991FFC01E859FF4FA591B491FC01EC55D1
:10023000FF4FC591D491623071F49FB7F8943C910F
:10024000822F809583238C93E8812E2B28839FBF58
:10025000DF91CF9108958FB7F894EC912E2B2C93CA
:100260008FBFF6CFCF9380910001843021F08F3F74
:1002700059F1CF910895E2ECF0E0C491C7FDF9CFB8
:1002800061E084E00E940101CC2309F48BC0C230FC
:1002900009F09FC08091B100887F83608093B10096
:1002A0008CE78093B3008FEF9FEFDC018093140104
:1002B00090931501A0931601B093170180917000DF
:1002C000826080937000D5CF84E080930001E2ECDF
:1002D000F0E0C491CF3F69F2C13021F150F0C2305B
:1002E00009F43EC0C7FDC5CF61E084E00E94010172
:1002F000CECF14BC15BC84B5826084BD85B5816049
:1003000085BDE2EBF0E0E491F0E0EE0FFF1FEC556D
:10031000FF4F85919491E4E9F0E0E491E0931301BB
:10032000C0E0AECF109280001092810080918100D9
:10033000886080938100809181008160809381003A
:10034000E2EBF0E0E491F0E0EE0FFF1FEC55FF4F21
:1003500085919491E4E9F0E0E491E093120190CF6B
:100360001092B0001092B1008091B0008260809332
:10037000B0008091B10081608093B100E2EBF0E0C9
:10038000E491F0E0EE0FFF1FEC55FF4F8591949143
:100390009093110180931001E4E9F0E0E491E0937F
:1003A0000F016ECF85B5887F836085BD8DE387BDE6
:1003B0008FEF9FEFDC0180931C0190931D01A093B0
:1003C0001E01B0931F0180916E00826080936E00C9
:1003D00050CFC130E9F480918100887F81608093A3
:1003E00081008FE99FE090938900809388008FEFD0
:1003F0009FEFDC018093180190931901A0931A01DB
:10040000B0931B0180916F00826080936F0031CFA9
:10041000C23021F0C1112DCF8FE9C9CF8FE941CF73
:100420003FB7F89480910B0190910C01A0910D01C0
:10043000B0910E0126B5A89B05C02F3F19F001967B
:10044000A11DB11D3FBFBA2FA92F982F8827BC012E
:10045000CD01620F711D811D911D42E0660F771F56
:10046000881F991F4A95D1F708958F929F92AF9256
:10047000BF92CF92DF92EF92FF924B015C010E94FC
:1004800010026B017C010E9410026C197D098E091B
:100490009F09683E734081059105A8F321E0821A07
:1004A0009108A108B10888EEC80E83E0D81EE11CAF
:1004B000F11C81149104A104B10429F7FF90EF907D
:1004C000DF90CF90BF90AF909F908F9008959091C4
:1004D000000189130BC0E2ECF0E0E4919FEF9093F0
:1004E0000001E13049F028F0E23061F060E00C9466
:1004F000D30010926E00FACF90916F009D7F909381
:100500006F00F4CF909170009D7F9093700091E008
:100510009093B0009091B100987F94609093B10057
:100520001092B300E3CF1F920F920FB60F921124D7
:100530002F933F938F939F93AF93BF938091070126
:1005400090910801A0910901B0910A013091060132
:1005500023E0230F2D3758F50196A11DB11D2093DF
:1005600006018093070190930801A0930901B093BD
:100570000A0180910B0190910C01A0910D01B091A5
:100580000E010196A11DB11D80930B0190930C01EA
:10059000A0930D01B0930E01BF91AF919F918F91E8
:1005A0003F912F910F900FBE0F901F90189526E846
:1005B000230F0296A11DB11DD2CF1F920F920FB62D
:1005C0000F9211242F933F934F935F936F937F93D9
:1005D0008F939F93AF93BF93EF93FF9380911401F9
:1005E00090911501A0911601B0911701892B8A2BCA
:1005F0008B2BD1F190910F01E0911001F09111013D
:100600008081892780838091140190911501A091A8
:100610001601B0911701181619061A061B069CF44C
:100620008091140190911501A0911601B0911701CC
:100630000197A109B1098093140190931501A0932A
:100640001601B0931701FF91EF91BF91AF919F9168
:100650008F917F916F915F914F913F912F910F906B
:100660000FBE0F901F901895809100010E946702A5
:10067000EACF789484B5826084BD84B5816084BDFE
:1006800085B5826085BD85B5816085BD80916E0030
:10069000816080936E001092810080918100826061
:1006A000809381008091810081608093810080919E
:1006B00080008160809380008091B100846080938D
:1006C000B1008091B00081608093B00080917A0089
:1006D000846080937A0080917A00826080937A00AF
:1006E00080917A00816080937A0080917A0080689E
:1006F00080937A001092C10061E083E00E940101C2
:1007000061E084E00E94010161E086E00E94010155
:1007100061E085E00E94010161E087E00E94010143
:1007200062E08AE00E94010162E08BE00E94010128
:1007300061E085E00E94D3000E94320164E670E02F
:1007400080E090E00E94350284E00E94670260E051
:1007500083E00E94D30000E010E0C1E0D0E08AE036
:100760000E94AA00892B09F073C080910401909126
:100770000501892B09F06CC060E085E00E94D30080
:1007800061E086E00E94D30061E083E00E94D30034
:1007900061E087E00E94D30060E088E00E94D3001F
:1007A00060E089E00E94D3000E94320164E670E0BC
:1007B00080E090E00E94350284E00E94670260E2DF
:1007C0007FEB82E090E00E94350260E087E00E94CB
:1007D000D30061E088E00E94D30060E089E00E94DD
:1007E000D3000E94320164EF71E080E090E00E944B
:1007F000350284E00E94670268EC70E080E090E0DF
:100800000E9435020E94320164EF71E080E090E0C6
:100810000E94350284E00E94670268EC70E080E08C
:1008200090E00E9435020E94320164EF71E080E0A6
:1008300090E00E94350284E00E9467026AE070E066
:1008400080E090E00E943502D0930501C09304013E
:100850008AE00E94AA00892B09F051C0809104010E
:1008600090910501019709F04AC060E086E00E947E
:10087000D30060E083E00E94D30060E087E00E9444
:10088000D30060E088E00E94D30061E089E00E942C
:10089000D3000E94320164E670E080E090E00E94A4
:1008A000350284E00E94670260E27FEB82E090E024
:1008B0000E94350260E087E00E94D30060E088E09B
:1008C0000E94D30060E089E00E94D30061E085E0EF
:1008D0000E94D3000E94320168EE73E080E090E055
:1008E0000E94350284E00E9467026AE070E080E0C6
:1008F00090E00E94350210920501109204018BE0F5
:100900000E94AA00892B91F4809102019091030129
:10091000892B61F40E943201D0930301C09302013C
:1009200064EF71E080E090E00E9435028BE00E946D
:10093000AA00892B99F480910201909103010197FB
:1009400069F484E00E946702109203011092020190
:1009500064EF71E080E090E00E943502011511051E
:0E09600009F4FDCE0E940000FACEF894FFCFFD
:02096E00FF0088
:00000001FF
